:020000040000FA
:020000000B28CB
:10000800DE00030E8312A0000A08A10033290C2881
:100018004721B200B101830111288312AC01AF015D
:10002800B0018B138316910183128701FF30831669
:1000380087008712071283121F119F111F169F1323
:100048001F1383161F088F3910389F0083121F143F
:100058008316111683128501FF30831685009114CB
:10006800831299011912191099101915831619106C
:1000780099101911991199121908F0390138990034
:100088008C150C130B138B138312A601A701FF30D9
:100098002702DC3003192602031C5328542856284B
:1000A80068286828000001308312A6070318A70AE9
:1000B8000030A707FF302702DC3003192602031C93
:1000C8006628672856286828AD01AE01A401A50155
:1000D800AD01AE017728000001308312AD07031887
:1000E800AE0A0030AE072E08803AA2003008803AE7
:1000F8002202031D81282F082D02031C842885282D
:100108006F2883129F1400008312AD01AE0194285A
:10011800000001308312AD070318AE0A0030AE07A5
:100128002E08803AA2003008803A2202031D9E2839
:100138002F082D02031CA128A2288C28A428A42853
:1001480083129F18A828A928A428AA281E083202C2
:100158000318AF28B028C228FF30AF070318B00A29
:10016800FF30B0072F0A031DBD28300A031DBD2824
:10017800BE286C28AC01AC0A2C296C280130AF07CA
:100188000318B00A0030B0072F0A3004031DCD2829
:10019800CE286C280230A2002208AC002C296C283A
:1001A8006C286C282C291B29A801A901FD302902DB
:1001B800E83003192802031CE228E328E528F6287A
:1001C800F628000001308312A8070318A90A003096
:1001D800A907FD302902E83003192802031CF52875
:1001E800F628E5280716AA01AB01FD302B02E830F6
:1001F80003192A02031C0129022904291529152992
:10020800000001308312AA070318AB0A0030AB07BD
:10021800FD302B02E83003192A02031C1429152982
:10022800042907122C2907162C292C292C292C08DB
:10023800A200A3012308003A031923292C29220824
:10024800013A0319D828033A031917292C292C290C
:100258002C08031D302931291B2932290B288C1D14
:10026800362937294029191F3A293B293D29871260
:100278003E2987168C11402921088A00200E830008
:08028800DE0E5E0E09000F34CA
:02400E0095FF1C
:00000001FF
