:020000040000FA
:020000000B28CB
:10000800DE00030E8312A0000A08A1001C290C2898
:100018002321B000AF01830111288312AA01AD0189
:10002800AE018B138701FF308316870087120712F2
:1000380083121F119F111F169F131F1383161F086A
:100048008F3910389F0083121F14831691011116DF
:100058000C130B138B138312A401A501FF30250287
:10006800DC3003192402031C3A283B283D284F287A
:100078004F28000001308312A4070318A50A003096
:10008800A507FF302502DC3003192402031C4D2884
:100098004E283D284F28AB01AC0152288716AB01EA
:1000A800AC015E28000001308312AB070318AC0ACC
:1000B8000030AC072C08803AA2002E08803A2202B1
:1000C800031D68282D082B02031C6B286C28562852
:1000D80083129F14000083128712AB01AC017C28A5
:1000E800000001308312AB070318AC0A0030AC07DC
:1000F8002C08803AA2002E08803A2202031D862886
:100108002D082B02031C89288A2874288C288C28FF
:1001180083129F18902891288C2892281E08300254
:10012800031897289828AA28FF30AD070318AE0AA5
:10013800FF30AE072D0A031DA5282E0A031DA5288A
:10014800A6285228AA01AA0ABE2852280130AD07BB
:100158000318AE0A0030AE072D0A2E04031DB52879
:10016800B62852280230A2002208AA00BE28522827
:1001780052285228871215290429A601A701FD3003
:100188002702E83003192602031CCB28CC28CE28E6
:10019800DF28DF28000001308312A6070318A70A0A
:1001A8000030A707FD302702E83003192602031C98
:1001B800DE28DF28CE280716A801A901FD3029026C
:1001C800E83003192802031CEA28EB28ED28FE284A
:1001D800FE28000001308312A8070318A90A00307E
:1001E800A907FD302902E83003192802031CFD285D
:1001F800FE28ED280712152907161529152915298E
:100208002A08A200A3012308003A03190C2915297A
:100218002208013A0319C128033A031900291529AC
:1002280015292A08031D19291A2904291B290B280D
:1002380021088A00200E8300DE0E5E0E09000F34AE
:02400E0095FF1C
:00000001FF
